{
  "_format": "hh-sol-artifact-1",
  "contractName": "Ballot",
  "sourceName": "contracts/TokenizedBallot.sol",
  "abi": [
    {
      "inputs": [
        {
          "internalType": "bytes32[]",
          "name": "proposalNames",
          "type": "bytes32[]"
        },
        {
          "internalType": "address",
          "name": "_tokenContract",
          "type": "address"
        },
        {
          "internalType": "uint256",
          "name": "_targetBlockNumber",
          "type": "uint256"
        }
      ],
      "stateMutability": "nonpayable",
      "type": "constructor"
    },
    {
      "inputs": [
        {
          "internalType": "uint256",
          "name": "",
          "type": "uint256"
        }
      ],
      "name": "proposals",
      "outputs": [
        {
          "internalType": "bytes32",
          "name": "name",
          "type": "bytes32"
        },
        {
          "internalType": "uint256",
          "name": "voteCount",
          "type": "uint256"
        }
      ],
      "stateMutability": "view",
      "type": "function"
    },
    {
      "inputs": [],
      "name": "targetBlockNumber",
      "outputs": [
        {
          "internalType": "uint256",
          "name": "",
          "type": "uint256"
        }
      ],
      "stateMutability": "view",
      "type": "function"
    },
    {
      "inputs": [],
      "name": "tokenContract",
      "outputs": [
        {
          "internalType": "contract IMyToken",
          "name": "",
          "type": "address"
        }
      ],
      "stateMutability": "view",
      "type": "function"
    },
    {
      "inputs": [
        {
          "internalType": "uint256",
          "name": "proposal",
          "type": "uint256"
        },
        {
          "internalType": "uint256",
          "name": "amount",
          "type": "uint256"
        }
      ],
      "name": "vote",
      "outputs": [],
      "stateMutability": "nonpayable",
      "type": "function"
    },
    {
      "inputs": [
        {
          "internalType": "address",
          "name": "account",
          "type": "address"
        }
      ],
      "name": "votingPower",
      "outputs": [
        {
          "internalType": "uint256",
          "name": "",
          "type": "uint256"
        }
      ],
      "stateMutability": "view",
      "type": "function"
    },
    {
      "inputs": [
        {
          "internalType": "address",
          "name": "",
          "type": "address"
        }
      ],
      "name": "votingPowerSpent",
      "outputs": [
        {
          "internalType": "uint256",
          "name": "",
          "type": "uint256"
        }
      ],
      "stateMutability": "view",
      "type": "function"
    },
    {
      "inputs": [],
      "name": "winnerName",
      "outputs": [
        {
          "internalType": "bytes32",
          "name": "winnerName_",
          "type": "bytes32"
        }
      ],
      "stateMutability": "view",
      "type": "function"
    },
    {
      "inputs": [],
      "name": "winningProposal",
      "outputs": [
        {
          "internalType": "uint256",
          "name": "winningProposal_",
          "type": "uint256"
        }
      ],
      "stateMutability": "view",
      "type": "function"
    }
  ],
  "bytecode": "0x60806040523480156200001157600080fd5b5060405162000d1938038062000d19833981810160405281019062000037919062000384565b81600260006101000a81548173ffffffffffffffffffffffffffffffffffffffff021916908373ffffffffffffffffffffffffffffffffffffffff1602179055508060018190555060005b8351811015620001165760036040518060400160405280868481518110620000af57620000ae620003ff565b5b60200260200101518152602001600081525090806001815401808255809150506001900390600052602060002090600202016000909190919091506000820151816000015560208201518160010155505080806200010d906200045d565b91505062000082565b50505050620004aa565b6000604051905090565b600080fd5b600080fd5b600080fd5b6000601f19601f8301169050919050565b7f4e487b7100000000000000000000000000000000000000000000000000000000600052604160045260246000fd5b620001848262000139565b810181811067ffffffffffffffff82111715620001a657620001a56200014a565b5b80604052505050565b6000620001bb62000120565b9050620001c9828262000179565b919050565b600067ffffffffffffffff821115620001ec57620001eb6200014a565b5b602082029050602081019050919050565b600080fd5b6000819050919050565b620002178162000202565b81146200022357600080fd5b50565b60008151905062000237816200020c565b92915050565b6000620002546200024e84620001ce565b620001af565b905080838252602082019050602084028301858111156200027a5762000279620001fd565b5b835b81811015620002a7578062000292888262000226565b8452602084019350506020810190506200027c565b5050509392505050565b600082601f830112620002c957620002c862000134565b5b8151620002db8482602086016200023d565b91505092915050565b600073ffffffffffffffffffffffffffffffffffffffff82169050919050565b60006200031182620002e4565b9050919050565b620003238162000304565b81146200032f57600080fd5b50565b600081519050620003438162000318565b92915050565b6000819050919050565b6200035e8162000349565b81146200036a57600080fd5b50565b6000815190506200037e8162000353565b92915050565b600080600060608486031215620003a0576200039f6200012a565b5b600084015167ffffffffffffffff811115620003c157620003c06200012f565b5b620003cf86828701620002b1565b9350506020620003e28682870162000332565b9250506040620003f5868287016200036d565b9150509250925092565b7f4e487b7100000000000000000000000000000000000000000000000000000000600052603260045260246000fd5b7f4e487b7100000000000000000000000000000000000000000000000000000000600052601160045260246000fd5b60006200046a8262000349565b91507fffffffffffffffffffffffffffffffffffffffffffffffffffffffffffffffff82036200049f576200049e6200042e565b5b600182019050919050565b61085f80620004ba6000396000f3fe608060405234801561001057600080fd5b50600436106100885760003560e01c8063a72003511161005b578063a720035114610118578063b384abef14610148578063c07473f614610164578063e2ba53f01461019457610088565b8063013cf08b1461008d5780632a8cd29e146100be57806355a373d6146100dc578063609ff1bd146100fa575b600080fd5b6100a760048036038101906100a291906104a8565b6101b2565b6040516100b59291906104fd565b60405180910390f35b6100c66101e6565b6040516100d39190610526565b60405180910390f35b6100e46101ec565b6040516100f191906105c0565b60405180910390f35b610102610212565b60405161010f9190610526565b60405180910390f35b610132600480360381019061012d9190610619565b61029a565b60405161013f9190610526565b60405180910390f35b610162600480360381019061015d9190610646565b6102b2565b005b61017e60048036038101906101799190610619565b610347565b60405161018b9190610526565b60405180910390f35b61019c610439565b6040516101a99190610686565b60405180910390f35b600381815481106101c257600080fd5b90600052602060002090600202016000915090508060000154908060010154905082565b60015481565b600260009054906101000a900473ffffffffffffffffffffffffffffffffffffffff1681565b6000806000905060005b60038054905081101561029557816003828154811061023e5761023d6106a1565b5b9060005260206000209060020201600101541115610282576003818154811061026a576102696106a1565b5b90600052602060002090600202016001015491508092505b808061028d906106ff565b91505061021c565b505090565b60006020528060005260406000206000915090505481565b806000803373ffffffffffffffffffffffffffffffffffffffff1673ffffffffffffffffffffffffffffffffffffffff16815260200190815260200160002060008282546103009190610747565b92505081905550806003838154811061031c5761031b6106a1565b5b9060005260206000209060020201600101600082825461033c9190610747565b925050819055505050565b60008060008373ffffffffffffffffffffffffffffffffffffffff1673ffffffffffffffffffffffffffffffffffffffff16815260200190815260200160002054600260009054906101000a900473ffffffffffffffffffffffffffffffffffffffff1673ffffffffffffffffffffffffffffffffffffffff16633a46b1a8846001546040518363ffffffff1660e01b81526004016103e792919061078a565b602060405180830381865afa158015610404573d6000803e3d6000fd5b505050506040513d601f19601f8201168201806040525081019061042891906107c8565b61043291906107f5565b9050919050565b60006003610445610212565b81548110610456576104556106a1565b5b906000526020600020906002020160000154905090565b600080fd5b6000819050919050565b61048581610472565b811461049057600080fd5b50565b6000813590506104a28161047c565b92915050565b6000602082840312156104be576104bd61046d565b5b60006104cc84828501610493565b91505092915050565b6000819050919050565b6104e8816104d5565b82525050565b6104f781610472565b82525050565b600060408201905061051260008301856104df565b61051f60208301846104ee565b9392505050565b600060208201905061053b60008301846104ee565b92915050565b600073ffffffffffffffffffffffffffffffffffffffff82169050919050565b6000819050919050565b600061058661058161057c84610541565b610561565b610541565b9050919050565b60006105988261056b565b9050919050565b60006105aa8261058d565b9050919050565b6105ba8161059f565b82525050565b60006020820190506105d560008301846105b1565b92915050565b60006105e682610541565b9050919050565b6105f6816105db565b811461060157600080fd5b50565b600081359050610613816105ed565b92915050565b60006020828403121561062f5761062e61046d565b5b600061063d84828501610604565b91505092915050565b6000806040838503121561065d5761065c61046d565b5b600061066b85828601610493565b925050602061067c85828601610493565b9150509250929050565b600060208201905061069b60008301846104df565b92915050565b7f4e487b7100000000000000000000000000000000000000000000000000000000600052603260045260246000fd5b7f4e487b7100000000000000000000000000000000000000000000000000000000600052601160045260246000fd5b600061070a82610472565b91507fffffffffffffffffffffffffffffffffffffffffffffffffffffffffffffffff820361073c5761073b6106d0565b5b600182019050919050565b600061075282610472565b915061075d83610472565b9250828201905080821115610775576107746106d0565b5b92915050565b610784816105db565b82525050565b600060408201905061079f600083018561077b565b6107ac60208301846104ee565b9392505050565b6000815190506107c28161047c565b92915050565b6000602082840312156107de576107dd61046d565b5b60006107ec848285016107b3565b91505092915050565b600061080082610472565b915061080b83610472565b9250828203905081811115610823576108226106d0565b5b9291505056fea26469706673582212201e566b635546b7fd0417cf3247b8fae770c10753139801f683068af4575e439a64736f6c63430008110033",
  "linkReferences": {},
  "deployedLinkReferences": {}
}